:020000040000FA
:04000000803108281B
:100008007E1480317E10090080310A282000B30157
:100018007E10200084311E2CFF34FF34FF34FF345F
:100028000134003400348034013400340034803426
:100038000134003400348034013400340034803416
:100048000134003400348034013400340034803406
:1000580001340034003480340134003400348034F6
:1000680001340034003480340134003400348034E6
:1000780001340034003480340134003400348034D6
:1000880001340034003480340134003400348034C6
:1000980001340034003480340134003400348034B6
:1000A80001340034003480340134003400348034A6
:1000B8000134003400348034013400340034803496
:1000C8000134003400348034013400340034803486
:1000D8000134003400348034013400340034803476
:1000E8000134003400348034013400340034803466
:1000F8000134003400348034013400340034803456
:100108000134003400348034013400340034803445
:100118000134003400348034013400340034803435
:100128000134003400348034013400340034803425
:100138000134003400348034013400340034803415
:100148000134003400348034013400340034803405
:1001580001340034003480340134003400348034F5
:1001680001340034003480340134FF34FF348034E7
:100178000134FF34FF3480340134FF34FF348034D9
:1001880001340734E034803401340734E0348034F7
:1001980001340734E034803401340734E0348034E7
:1001A80001340734E034803401340734E0348034D7
:1001B80001340734E034803401340734E0348034C7
:1001C8000134003400348034013400340034803485
:1001D80001340034003480340134FF34FF34803477
:1001E8000134FF34FF3480340134FF34FF34803469
:1001F8000134003400348034013400340034803455
:1002080001340034003480340134FF34FF34803446
:100218000134FF34FF3480340134FF34FF34803438
:100228000134073407348034013407340734803408
:1002380001340734073480340134073407348034F8
:1002480001340734073480340134073407348034E8
:100258000134FF34FF3480340134FF34FF348034F8
:100268000134FF34FF3480340134003400348034E6
:1002780001340034003480340134003400348034D4
:100288000134FF34FF3480340134FF34FF348034C8
:100298000134FF34FF34803401340734E0348034CF
:1002A80001340734E034803401340734E0348034D6
:1002B80001340734E034803401340734E0348034C6
:1002C80001340734E03480340134FF34FF3480349F
:1002D8000134FF34FF3480340134FF34FF34803478
:1002E8000134003400348034013400340034803464
:1002F8000134003400348034013400340034803454
:100308000134003400348034013400340034803443
:100318000134003400348034013400340034803433
:100328000134003400348034013400340034803423
:100338000134003400348034013400340034803413
:100348000134003400348034013400340034803403
:1003580001340034003480340134003400348034F3
:1003680001340034003480340134003400348034E3
:1003780001340034003480340134003400348034D3
:1003880001340034003480340134003400348034C3
:1003980001340034003480340134003400348034B3
:1003A80001340034003480340134003400348034A3
:1003B8000134003400348034013400340034803493
:1003C8000134003400348034013400340034803483
:1003D8000134003400348034013400340034803473
:1003E8000134003400348034013400340034803463
:1003F8000134003400348034013400340034803453
:100408000134003400348034013400340034803442
:10041800FF34FF34FF34FF340030FC000030FB00B1
:100428000030FA000030F900730872047104700497
:1004380003191F2A202A612AFD01FD0A2E2A0130EC
:10044800F035F10DF20DF30D890B242A0130F80077
:100458007808FD07F31F312A322A232A0130F9359B
:10046800FA0DFB0DFC0D890B332A73087702031D67
:10047800472A72087602031D472A71087502031D70
:10048800472A70087402031C4A2A4B2A542A700807
:10049800F4027108F53B7208F63B7308F73B7914D0
:1004A8000130F336F20CF10CF00C890B552A0130AF
:1004B800FD02031D602A612A322A7C08F3007B08AA
:1004C800F2007A08F1007908F00008003D302000B9
:1004D800B200E130B1003F30890B702AB10B702AAD
:1004E800B20B702A00323D302000B200E130B1007A
:1004F8003F30890B7D2AB10B7D2AB20B7D2A003251
:1005080003302000B1003108A700A8017F30B200F5
:100518003208A9001030AA008030AB000030AC00CF
:100528000230AD0000308231AC2282312000330825
:100538008331EB23823101302000B1003108B30749
:1005480002303302031CA92AAA2AAB2AB3010800E5
:100558002000AE002708FB007B08F7002808FC00F5
:100568007C08F8002908FD007D08F9002E08833171
:100578004D238231843144248231F0013C3083316F
:10058800FF23823140308431362482312000AF018C
:10059800B001DF2A2A0884002B088500000884316E
:1005A8003624823101302000AA070030AB3D0130EB
:1005B800AF070030B03D2D083002031DE52A2C0896
:1005C8002F02031CE82AE92ACE2A84313E248231EC
:1005D80008000330FB007B08F700F8017F30FC00BF
:1005E8007C08F900003083314D2382318431442462
:1005F8008231F0013C308331FF2382314030843135
:10060800362482312000A701A80100308431362425
:10061800823101302000A7070030A83D02302802AF
:10062800003003192702031C1A2B1B2B092B8431BA
:100638003E24823108002830240095009601970155
:10064800940120002008A4002108A5002208A60083
:100658002308A7000230A435A50DA60DA70D890B08
:100668002F2B2708F3002608F2002508F10024089C
:10067800F0000130F700E830F6004830F5000030AF
:10068800F4008231102283317008FF3E240092006A
:1006980008002000A6002230FA007A08A0002608E8
:1006A800FA007A08A1007708FA007A08A200213037
:1006B800FA007A08A3007808FA007A08A4007908F2
:1006C800FA007A08A5002030F4000030F500063062
:1006D800FA007A08F6008331982383310800F03055
:1006E800210099009801D73095001F308C00230015
:1006F8008C0122008C013F3021008E0023008E01E6
:1007080022008E0100302000A3000630A2001A301B
:10071800A1008030A00083311F2383318B12210078
:1007280091110B138B130800843144248331F00199
:100738003C308331FF2383310030843136248331C8
:10074800B12B7408840075088500000884313624AC
:1007580083310130F4070030F53D0130F602760AA6
:10076800031DB72BB82BA52B84313E2483310800F9
:10077800AE34D5348034A8341F34D33400344034F4
:100788008D34143420340134A034C034DA340234C3
:1007980081348F34D934F134DB342034A434A63492
:1007A8002E34AF34F400843144248331F0013C30DA
:1007B8008331FF2383310030843136248331740838
:1007C80084313624833184313E2483310800F50096
:1007D80075030319F02BF12BF62BA630F600003029
:1007E800F700FA2BA730F6000030F70076088331BF
:1007F800D62383310800F2007235F1007108F30046
:100808007008F1007108F30784312A2483317308D2
:10081800240091000800BC30F4008330F5001A3041
:10082800FD007D08F6008331982384318231ED2262
:100838008431080083317323843184310F24843157
:1008480082316A228431242C80310828240014192A
:100858002E2C2F2C2A2C16081F39031D342C352C2E
:100868002A2C0800F00084312A24843170082400DE
:100878009100080084312A248431240016150800C8
:0C08880084312A24843124001614080056
:020000040001F9
:04000E0084C9FFDFC3
:00000001FF
